:020000040800F2
:10000000005000205D110008A5110008A51100088E
:10001000A5110008A5110008A511000800000000A6
:100020000000000000000000000000007D880008C3
:10003000A511000800000000A18A000839AF0008DF
:10004000A5110008A5110008A5110008A5110008B8
:10005000A5110008A5110008A5110008A5110008A8
:10006000A5110008A5110008A511000849AF000856
:100070005DAF000871AF000885AF0008A51100084A
:10008000A5110008A5110008A5110008A511000878
:10009000A5110008A5110008A5110008A511000868
:1000A000A5110008A5110008A5110008A511000858
:1000B000A5110008A5110008A5110008A511000848
:1000C000A5110008A5110008A5110008A511000838
:1000D000A511000899AF0008A5110008A511000896
:1000E000A5110008A5110008A511000800000000D6
:1000F0000000000000000000000000000000000000
:0C01000000000000000000005FF808F1A3
:10010C0010B5054C237833B9044B13B10448AFF345
:10011C0000800123237010BD580400200000000053
:10012C00A0B7000808B5064B1BB106480649AFF34B
:10013C0000800648036813B1054B03B1984708BD0E
:10014C0000000000A0B700085C0400205804002048
:10015C000000000081F0004102E000BF83F000438A
:10016C0030B54FEA41044FEA430594EA050F08BF46
:10017C0090EA020F1FBF54EA000C55EA020C7FEA0A
:10018C00645C7FEA655C00F0E2804FEA5454D4EB87
:10019C005555B8BF6D420CDD2C4480EA020281EA51
:1001AC00030382EA000083EA010180EA020281EA89
:1001BC000303362D88BF30BD11F0004F4FEA0131DB
:1001CC004FF4801C4CEA113102D0404261EB4101EA
:1001DC0013F0004F4FEA03334CEA133302D0524270
:1001EC0063EB430394EA050F00F0A780A4F101042C
:1001FC00D5F1200E0DDB02FA0EFC22FA05F2801866
:10020C0041F1000103FA0EF2801843FA05F359414B
:10021C000EE0A5F120050EF1200E012A03FA0EFCCA
:10022C0028BF4CF0020C43FA05F3C01851EBE371F4
:10023C0001F0004507D54FF0000EDCF1000C7EEB11
:10024C0000006EEB0101B1F5801F1BD3B1F5001F4F
:10025C000CD349085FEA30004FEA3C0C04F101046E
:10026C004FEA445212F5800F80F09A80BCF1004F97
:10027C0008BF5FEA500C50F1000041EB045141EA19
:10028C00050130BD5FEA4C0C404141EB010111F41A
:10029C00801FA4F10104E9D191F0000F04BF0146C5
:1002AC000020B1FA81F308BF2033A3F10B03B3F1A3
:1002BC0020020CDA0C3208DD02F1140CC2F10C0233
:1002CC0001FA0CF021FA02F10CE002F11402D8BF91
:1002DC00C2F1200C01FA02F120FA0CFCDCBF41EA5D
:1002EC000C019040E41AA2BF01EB0451294330BD2C
:1002FC006FEA04041F3C1CDA0C340EDC04F1140409
:10030C00C4F1200220FA04F001FA02F340EA0300DF
:10031C0021FA04F345EA030130BDC4F10C04C4F125
:10032C00200220FA02F001FA04F340EA0300294605
:10033C0030BD21FA04F0294630BD94F0000F83F44F
:10034C00801306BF81F480110134013D4EE77FEA32
:10035C00645C18BF7FEA655C29D094EA050F08BF7E
:10036C0090EA020F05D054EA000C04BF194610465F
:10037C0030BD91EA030F1EBF0021002030BD5FEAA3
:10038C00545C05D14000494128BF41F0004130BDCB
:10039C0014F580043CBF01F5801130BD01F000451F
:1003AC0045F0FE4141F470014FF0000030BD7FEA92
:1003BC00645C1ABF194610467FEA655C1CBF0B468D
:1003CC00024650EA013406BF52EA033591EA030FA4
:1003DC0041F4002130BD00BF90F0000F04BF00219C
:1003EC00704730B54FF4806404F132044FF00005CF
:1003FC004FF0000150E700BF90F0000F04BF002148
:10040C00704730B54FF4806404F1320410F00045AD
:10041C0048BF40424FF000013EE700BF42004FEAA8
:10042C00E2014FEA31014FEA02701FBF12F07F4325
:10043C0093F07F4F81F06051704792F0000F14BF22
:10044C0093F07F4F704730B54FF4607401F0004566
:10045C0021F0004120E700BF50EA010208BF7047BD
:10046C0030B54FF000050AE050EA010208BF7047B2
:10047C0030B511F0004502D5404261EB41014FF41B
:10048C00806404F132045FEA915C3FF4DCAE4FF01F
:10049C0003025FEADC0C18BF03325FEADC0C18BF06
:1004AC00033202EBDC02C2F1200300FA03FC20FA57
:1004BC0002F001FA03FE40EA0E0021FA02F11444A4
:1004CC00C1E600BF70B54FF0FF0C4CF4E06C1CEAB9
:1004DC0011541DBF1CEA135594EA0C0F95EA0C0F2E
:1004EC0000F0DEF82C4481EA030621EA4C5123EAA1
:1004FC004C5350EA013518BF52EA033541F48011D0
:10050C0043F4801338D0A0FB02CE4FF00005E1FB82
:10051C0002E506F00042E0FB03E54FF00006E1FBCC
:10052C0003569CF0000F18BF4EF0010EA4F1FF040F
:10053C00B6F5007F64F5407404D25FEA4E0E6D414F
:10054C0046EB060642EAC62141EA55514FEAC52060
:10055C0040EA5E504FEACE2EB4F1FD0C88BFBCF5DC
:10056C00E06F1ED8BEF1004F08BF5FEA500E50F18D
:10057C00000041EB045170BD06F0004646EA010153
:10058C0040EA020081EA0301B4EB5C04C2BFD4EB85
:10059C000C0541EA045170BD41F480114FF0000E7E
:1005AC00013C00F3AB8014F1360FDEBF002001F0EC
:1005BC00004170BDC4F10004203C35DA0C341BDC66
:1005CC0004F11404C4F1200500FA05F320FA04F038
:1005DC0001FA05F240EA020001F0004221F000416C
:1005EC0010EBD37021FA04F642EB06015EEA430EDF
:1005FC0008BF20EAD37070BDC4F10C04C4F120050F
:10060C0000FA04F320FA05F001FA04F240EA0200C1
:10061C0001F0004110EBD37041F100015EEA430E92
:10062C0008BF20EAD37070BDC4F1200500FA05F2B2
:10063C004EEA020E20FA04F301FA05F243EA020331
:10064C0021FA04F001F0004121FA04F220EA020040
:10065C0000EBD3705EEA430E08BF20EAD37070BD86
:10066C0094F0000F0FD101F00046400041EB010166
:10067C0011F4801F08BF013CF7D041EA060195F048
:10068C00000F18BF704703F00046520043EB030302
:10069C0013F4801F08BF013DF7D043EA06037047EF
:1006AC0094EA0C0F0CEA135518BF95EA0C0F0CD0FA
:1006BC0050EA410618BF52EA4306D1D181EA030140
:1006CC0001F000414FF0000070BD50EA410606BF3A
:1006DC001046194652EA430619D094EA0C0F02D17F
:1006EC0050EA013613D195EA0C0F05D152EA0336C4
:1006FC001CBF104619460AD181EA030101F00041E2
:10070C0041F0FE4141F470014FF0000070BD41F02A
:10071C00FE4141F4780170BD70B54FF0FF0C4CF404
:10072C00E06C1CEA11541DBF1CEA135594EA0C0F23
:10073C0095EA0C0F00F0A7F8A4EB050481EA030E70
:10074C0052EA03354FEA013100F088804FEA033357
:10075C004FF0805545EA131343EA12634FEA022225
:10076C0045EA111545EA10654FEA00260EF00041E6
:10077C009D4208BF964244F1FD0404F5407402D238
:10078C005B084FEA3202B61A65EB03055B084FEAC9
:10079C0032024FF480104FF4002CB6EB020E75EBC6
:1007AC00030E22BFB61A754640EA0C005B084FEAEE
:1007BC003202B6EB020E75EB030E22BFB61A75466B
:1007CC0040EA5C005B084FEA3202B6EB020E75EBB6
:1007DC00030E22BFB61A754640EA9C005B084FEA2E
:1007EC003202B6EB020E75EB030E22BFB61A75463B
:1007FC0040EADC0055EA060E18D04FEA051545EA2A
:10080C0016754FEA06164FEAC30343EA52734FEAD2
:10081C00C2025FEA1C1CC0D111F4801F0BD141EA4B
:10082C0000014FF000004FF0004CB6E711F4801FB0
:10083C0004BF01430020B4F1FD0C88BFBCF5E06F90
:10084C003FF6AFAEB5EB030C04BFB6EB020C5FEAA0
:10085C00500C50F1000041EB045170BD0EF0004EF5
:10086C004EEA113114EB5C04C2BFD4EB0C0541EA27
:10087C00045170BD41F480114FF0000E013C90E624
:10088C0045EA060E8DE60CEA135594EA0C0F08BFE8
:10089C0095EA0C0F3FF43BAF94EA0C0F0AD150EAE7
:1008AC0001347FF434AF95EA0C0F7FF425AF10467A
:1008BC0019462CE795EA0C0F06D152EA03353FF4A2
:1008CC00FDAE1046194622E750EA410618BF52EA1F
:1008DC0043067FF4C5AE50EA41047FF40DAF52EAF3
:1008EC0043057FF4EBAE12E74FEA4102B2F1E0436D
:1008FC0024BFB3F5001CDCF1FE5C0DD901F0004CFB
:10090C004FEAC0024CEA5070B2F1004F40EB83004A
:10091C0008BF20F00100704711F0804F21D113F176
:10092C003872BCBF01F00040704741F480114FEAAF
:10093C005252C2F11802C2F1200C10FA0CF320FA38
:10094C0002F018BF40F001004FEAC1234FEAD32355
:10095C0003FA0CFC40EA0C0023FA02F34FEA4303BF
:10096C00CCE77FEA625307D150EA01331EBF4FF048
:10097C00FE4040F44000704701F0004040F0FE4063
:10098C0040F40000704700BF80F0004002E000BF60
:10099C0081F0004142001FBF5FEA410392EA030F5E
:1009AC007FEA226C7FEA236C6AD04FEA1262D2EBA8
:1009BC001363C1BFD218414048404140B8BF5B42AD
:1009CC00192B88BF704710F0004F40F4000020F046
:1009DC007F4018BF404211F0004F41F4000121F05C
:1009EC007F4118BF494292EA030F3FD0A2F10102A6
:1009FC0041FA03FC10EB0C00C3F1200301FA03F1E4
:100A0C0000F0004302D5494260EB4000B0F5000F06
:100A1C0013D3B0F1807F06D340084FEA310102F1C5
:100A2C000102FE2A51D2B1F1004F40EBC25008BF77
:100A3C0020F0010040EA03007047490040EB000041
:100A4C0010F4000FA2F10102EDD1B0FA80FCACF170
:100A5C00080CB2EB0C0200FA0CF0AABF00EBC2506F
:100A6C0052421843BCBFD0401843704792F0000F5D
:100A7C0081F4000106BF80F400000132013BB5E7B0
:100A8C004FEA41037FEA226C18BF7FEA236C21D026
:100A9C0092EA030F04D092F0000F08BF084670478B
:100AAC0090EA010F1CBF0020704712F07F4F04D159
:100ABC00400028BF40F00040704712F100723CBF6C
:100ACC0000F50000704700F0004343F0FE4040F496
:100ADC00000070477FEA226216BF08467FEA236354
:100AEC000146420206BF5FEA412390EA010F40F43F
:100AFC00800070474FF0000304E000BF10F000438B
:100B0C0048BF40425FEA000C08BF704743F0964371
:100B1C0001464FF000001CE050EA010208BF70478C
:100B2C004FF000030AE000BF50EA010208BF704713
:100B3C0011F0004302D5404261EB41015FEA010C28
:100B4C0002BF84460146002043F0B64308BFA3F120
:100B5C008053A3F50003BCFA8CF2083AA3EBC25302
:100B6C0010DB01FA02FC634400FA02FCC2F1200221
:100B7C00BCF1004F20FA02F243EB020008BF20F058
:100B8C000100704702F1200201FA02FCC2F12002BE
:100B9C0050EA4C0021FA02F243EB020008BF20EAB3
:100BAC00DC7070474FF0FF0C1CEAD0521EBF1CEAE1
:100BBC00D15392EA0C0F93EA0C0F6FD01A4480EACF
:100BCC00010C400218BF5FEA41211ED04FF00063B8
:100BDC0043EA501043EA5111A0FB01310CF00040E4
:100BEC00B1F5000F3EBF490041EAD3715B0040EA0A
:100BFC00010062F17F02FD2A1DD8B3F1004F40EBDA
:100C0C00C25008BF20F00100704790F0000F0CF0AC
:100C1C00004C08BF49024CEA502040EA51207F3A70
:100C2C00C2BFD2F1FF0340EAC250704740F400004B
:100C3C004FF00003013A5DDC12F1190FDCBF00F03C
:100C4C0000407047C2F10002410021FA02F1C2F1EA
:100C5C00200200FA02FC5FEA310040F1000053EA86
:100C6C004C0308BF20EADC70704792F0000F00F0D4
:100C7C00004C02BF400010F4000F013AF9D040EADA
:100C8C000C0093F0000F01F0004C02BF490011F46E
:100C9C00000F013BF9D041EA0C018FE70CEAD1536C
:100CAC0092EA0C0F18BF93EA0C0F0AD030F0004CEC
:100CBC0018BF31F0004CD8D180EA010000F00040A0
:100CCC00704790F0000F17BF90F0004F084691F05E
:100CDC00000F91F0004F14D092EA0C0F01D1420298
:100CEC000FD193EA0C0F03D14B0218BF084608D161
:100CFC0080EA010000F0004040F0FE4040F40000AB
:100D0C00704740F0FE4040F4400070474FF0FF0C3D
:100D1C001CEAD0521EBF1CEAD15392EA0C0F93EA84
:100D2C000C0F69D0A2EB030280EA010C49024FEAD6
:100D3C00402037D04FF0805343EA111143EA10138F
:100D4C000CF000408B4238BF5B0042F17D024FF447
:100D5C00000C8B4224BF5B1A40EA0C00B3EB510F22
:100D6C0024BFA3EB510340EA5C00B3EB910F24BF0B
:100D7C00A3EB910340EA9C00B3EBD10F24BFA3EB90
:100D8C00D10340EADC001B0118BF5FEA1C1CE0D158
:100D9C00FD2A3FF650AF8B4240EBC25008BF20F00B
:100DAC00010070470CF0004C4CEA50207F32C2BF5F
:100DBC00D2F1FF0340EAC250704740F400004FF0FC
:100DCC000003013A37E792F0000F00F0004C02BF2D
:100DDC00400010F4000F013AF9D040EA0C0093F0F7
:100DEC00000F01F0004C02BF490011F4000F013B51
:100DFC00F9D041EA0C0195E70CEAD15392EA0C0FB9
:100E0C0008D142027FF47DAF93EA0C0F7FF470AFF0
:100E1C00084676E793EA0C0F04D14B023FF44CAF33
:100E2C0008466EE730F0004C18BF31F0004CCAD1C8
:100E3C0030F000427FF45CAF31F000437FF43CAF04
:100E4C005FE700BF4FF0FF3C06E000BF4FF0010C26
:100E5C0002E000BF4FF0010C4DF804CD4FEA400208
:100E6C004FEA41037FEA226C18BF7FEA236C11D052
:100E7C0001B052EA530C18BF90EA010F58BFB2EB05
:100E8C00030088BFC81738BF6FEAE17018BF40F085
:100E9C00010070477FEA226C02D15FEA402C05D139
:100EAC007FEA236CE4D15FEA412CE1D05DF8040BBE
:100EBC00704700BF844608466146FFE70FB5FFF751
:100ECC00C9FF002848BF10F1000F0FBD4DF808ED09
:100EDC00FFF7F4FF0CBF012000205DF808FB00BFFA
:100EEC004DF808EDFFF7EAFF34BF012000205DF854
:100EFC0008FB00BF4DF808EDFFF7E0FF94BF0120A1
:100F0C0000205DF808FB00BF4DF808EDFFF7D2FF9D
:100F1C0094BF012000205DF808FB00BF4DF808EDE0
:100F2C00FFF7C8FF34BF012000205DF808FB00BFAD
:100F3C0042000ED2B2F1FE4F0BD34FF09E03B3EB37
:100F4C00126209D44FEA002343F0004323FA02F063
:100F5C0070474FF00000704712F1610F01D142024F
:100F6C0002D14FF0FF3070474FF00000704700BFC8
:100F7C0070B50F4D0F4E761BB61007D0043D0024F4
:100F8C0055F8043F01349847A642F9D10A4D0B4E4F
:100F9C000AF000FC761BB61008D0043D002455F86E
:100FAC00043F01349847A642F9D170BD70BD00BF13
:100FBC007CB800087CB800087CB8000884B800082D
:100FCC0070B48407034642D0541E002A3DD0CEB2E2
:100FDC0003E0621E002C38D0144603F8016B9A070C
:100FEC001D46F6D1032C29D9CAB20F2C42EA022293
:100FFC0042EA024284BF2B46264611D9103E1A60A3
:10100C005A609A60DA6010330F2EF7D8A4F11003EF
:10101C0023F00F0304F00F041033032C1D440DD9DF
:10102C002E462346043B032B46F8042BFAD8231FE9
:10103C0023F00303043304F00304ED182CB1C9B2FC
:10104C002C1905F8011BA542FBD170BC7047054655
:10105C001446C7E7024B13B1024800F005B87047BD
:10106C0000000000811000080146002002460346E3
:10107C0000F016B838B5084D084C641BA41018BF06
:10108C0005EB840504D055F8043D9847013CFAD192
:10109C00BDE838400AF084BB84B8000888B8000862
:1010AC002DE9F041284C84B025680746D5F8484115
:1010BC00002C43D066681F2E1CDD244810B94FF05D
:1010CC00FF301FE04FF4C870039102920193AFF30D
:1010DC00008003990446029A019B0028EFD0D5F8B2
:1010EC004861002060602660C5F84841C4F888015A
:1010FC00C4F88C01656847B9AB1C013544F8231062
:10110C006560002004B0BDE8F081012000FA05F014
:10111C00022F04EB8508D4F88861C8F8083108BFA1
:10112C00D4F88C3146EA000608BF1843C8F888206A
:10113C00C4F8886108BFC4F88C01DDE705F5A67416
:10114C00C5F84841B6E700BF5CB8000800000000D5
:10115C00002103E00B4B5B58435004310A480B4B06
:10116C0042189A42F6D30A4A02E0002342F8043BA2
:10117C00084B9A42F9D300F011F8FFF7F9FE08F08A
:10118C0033FE704788B80008000000205804002087
:10119C0058040020CC150020FEE7000080B400AFFE
:1011AC004FF48053C4F202034FF48052C4F2020293
:1011BC00126842F001021A604FF48052C4F202022B
:1011CC004FF48053C4F2020359684FF00003CFF67A
:1011DC00FF030B4053604FF48053C4F202034FF4EF
:1011EC008052C4F20202126822F0847222F480321D
:1011FC001A604FF48053C4F202034FF48052C4F2CD
:10120C000202126822F480221A604FF48053C4F256
:10121C0002034FF48052C4F20202526822F4FE021E
:10122C005A604FF48053C4F202034FF41F029A60C9
:10123C004FF46D43CEF200034FF000629A60BD464E
:10124C0080BC704780B500AF4FF40053C4F202036A
:10125C004FF40052C4F20202126842F010021A60FB
:10126C004FF0030000F0B8FD4FF0000000F006F85E
:10127C0009F03EFB4FF00003184680BD80B582B0EC
:10128C0000AF786004F09EF9024644F6D353C1F2E5
:10129C006203A3FB02134FEA9313184600F0D4FD2C
:1012AC004FF0FF3079684FF0000200F0A1FD4FF0D5
:1012BC000003184607F10807BD4680BD80B400AF97
:1012CC0040F27443C2F200031B6803F1010240F2C6
:1012DC007443C2F200031A60BD4680BC704700BF65
:1012EC0080B400AF40F27443C2F200031B6818468E
:1012FC00BD4680BC704700BF80B584B000AF78603D
:10130C004FF00003FB60FFF7EBFFF86000BFFFF747
:10131C00E7FF0246FB68D21A7B689A42F7D307F1C3
:10132C001007BD4680BD00BF90B593B000AF78608C
:10133C004FF0000387F847304FF000033B644FF049
:10134C000003BB634FF00003FB637B68002B02D1EF
:10135C004FF00103D8E07B6893F82930DBB2002B07
:10136C0007D17B684FF0000283F82820786809F0D9
:10137C00F5FA786800F0A8FB034687F8473097F831
:10138C004730012B00F0B5807B684FF0020283F8E8
:10139C0029207B685A687B68DB691A437B68D968AB
:1013AC004FF002037B637B6B93FAA3F43C633B6BC0
:1013BC00FB62FB6AB3FA83F4BC62BB6ADBB201FA70
:1013CC0003F31343BA6B1343BB637B689B68B3F59E
:1013DC00807F03D07B689B68012B02D14FF4807314
:1013EC0001E04FF000033A6C13433B647B685B698C
:1013FC00012B1DD17B68DB68002B19D17B689B69A5
:10140C0003F1FF324FF460437B627B6A93FAA3F4DF
:10141C003C623B6AFB61FB69B3FA83F4BC61BB6958
:10142C00DBB202FA03F23B6C134343F400633B64FC
:10143C007B681B687A681268526822F469413A6CBE
:10144C000A435A607B681A687B681B6899684FF27C
:10145C00FD73CFF6E1730B40B96B0B4393607B6864
:10146C009B68B3F5807F15D17B681B6903F1FF3254
:10147C004FF470037B617B6993FAA3F43C613B6985
:10148C00FB60FB68B3FA83F4BC60BB68DBB202FAA6
:10149C0003F3FB637B681B687A681268D26A22F4D8
:1014AC007001FA6B0A43DA627B681B689A6840F633
:1014BC00FE73CFF61F731340BA6B934209D17B684E
:1014CC004FF00002DA627B684FF0010283F82920AA
:1014DC0018E07B684FF0040283F829207B68DB6AF4
:1014EC0043F001027B68DA624FF0010387F8473062
:1014FC0008E07B684FF0040283F829204FF00103C9
:10150C0087F8473097F84730184607F14C07BD4627
:10151C0090BD00BF80B586B000AFF860B9607A604E
:10152C004FF00003FB75FB681A684FF41053C4F2BC
:10153C0001039A4207D0FB681A684FF42053C4F297
:10154C0001039A4209D14FF41053C4F201035B68B2
:10155C0003F47023002B40F08280FB6893F8283052
:10156C00012B02D14FF002037DE0FB684FF001022A
:10157C0083F82820F86800F04BFA0346FB75FB7DD6
:10158C00012B66D0FB6893F82930DBB2222B05D1F6
:10159C00FB684FF0320283F8292004E0FB684FF01F
:1015AC00120283F82920FB684FF0000283F82820F0
:1015BC00FB684FF00002DA62FB685A6A41F651335D
:1015CC00C0F600039362FB685A6A41F6B533C0F665
:1015DC000003D362FB685A6A41F6D133C0F60003AC
:1015EC001363FB681B68FA681268126822F0020227
:1015FC001A60FB681B68FA681268926842F4807281
:10160C009A60FB68596AFB681B6803F14C031A4625
:10161C00BB68084611461A467B6800F09BFCFB68C9
:10162C001B689B6803F46023B3F5602F08D1FB683B
:10163C001B68FA681268926842F4A0029A6011E082
:10164C00FB681B68FA681268926842F480129A6010
:10165C0008E0FB684FF0000283F8282002E04FF00E
:10166C000103FB75FB7D184607F11807BD4680BDCD
:10167C0080B483B000AF786007F10C07BD4680BC26
:10168C00704700BF80B483B000AF786007F10C07DF
:10169C00BD4680BC704700BF90B4ACB000AF786062
:1016AC0039604FF0000387F8AF304FF00003BB6098
:1016BC007B6893F82830012B02D14FF00203A1E193
:1016CC007B684FF0010283F828203B685B68062B8F
:1016DC004CD87B681B687A681268516B4FF478722F
:1016EC00C7F8A820D7F8A82092FAA2F4C7F8A4400B
:1016FC00D7F8A420C7F8A020D7F8A020B2FA82F41B
:10170C00C7F89C40D7F89C20D2B23868406800F1EA
:10171C00FF3000FB02F24FF01F0000FA02F26FEAFA
:10172C00020211403A6810684FF47872C7F898209A
:10173C00D7F8982092FAA2F4C7F89440D7F89420DE
:10174C00C7F89020D7F89020B2FA82F4C7F88C40F2
:10175C00D7F88C20D2B23C68646804F1FF3404FBE7
:10176C0002F200FA02F20A435A6382E03B685B68B9
:10177C000C2B42D87B681B687A681268116B4FF48B
:10178C007872C7F88820D7F8882092FAA2F4C7F8A4
:10179C008440D7F88420C7F88020D7F88020B2FA8C
:1017AC0082F4FC67FA6FD2B238684068A0F1070087
:1017BC0000FB02F24FF01F0000FA02F26FEA020285
:1017CC0011403A6810684FF47872BA67BA6F92FA9F
:1017DC00A2F47C677A6F3A673A6FB2FA82F4FC66CD
:1017EC00FA6ED2B23C686468A4F1070404FB02F2FE
:1017FC0000FA02F20A431A633BE07B681B687A68C2
:10180C001268D16A4FF47872BA66BA6E92FAA2F480
:10181C007C667A6E3A663A6EB2FA82F4FC65FA6DC0
:10182C00D2B238684068A0F10D0000FB02F24FF014
:10183C001F0000FA02F26FEA020211403A681068C7
:10184C004FF47872BA65BA6D92FAA2F47C657A6D2F
:10185C003A653A6DB2FA82F4FC64FA6CD2B23C6826
:10186C006468A4F10D0404FB02F200FA02F20A43CC
:10187C00DA623B681B68092B3CD97B681B687A6869
:10188C001268D1684FF03802BA64BA6C92FAA2F4BA
:10189C007C647A6C3A643A6CB2FA82F4FC63FA6B4C
:1018AC00D2B238680068A0F10A0000FB02F24FF0D7
:1018BC00070000FA02F26FEA020211403A689068DF
:1018CC004FF03802BA63BA6B92FAA2F47C637A6B6B
:1018DC003A633A6BB2FA82F4FC62FA6AD2B23C68AE
:1018EC002468A4F10A0404FB02F200FA02F20A438F
:1018FC00DA6037E07B681B687A68126811694FF010
:10190C003802BA62BA6A92FAA2F47C627A6A3A62D1
:10191C003A6AB2FA82F4FC61FA69D2B238680068A9
:10192C0000FB02F24FF0070000FA02F26FEA02022B
:10193C0011403A6890684FF03802BA61BA6992FA6D
:10194C00A2F47C617A693A613A69B2FA82F4FC6079
:10195C00FA68D2B23C68246804FB02F200FA02F284
:10196C000A431A613B681B68102B03D03B681B6849
:10197C00112B40D17B681A684FF41053C4F2010349
:10198C009A422FD17B681B689B6803F40003002BE1
:10199C0031D17B681B687A681268926842F4000245
:1019AC009A603B681B68102B25D140F22C43C2F285
:1019BC0000031A684DF68363C4F21B33A3FB0213B6
:1019CC004FEA934213464FEA83039B184FEA4303B3
:1019DC00BB6003E0BB6803F1FF33BB60BB68002B4B
:1019EC00F8D108E07B684FF0040283F829204FF00F
:1019FC00010387F8AF307B684FF0000283F8282092
:101A0C0097F8AF30184607F1B007BD4690BC704749
:101A1C0080B584B000AF78604FF00003FB604FF0EE
:101A2C000003BB607B681B689B6803F00103002B01
:101A3C0042D17B681B687A681268926842F0010296
:101A4C009A6040F22C43C2F200031A684DF683638D
:101A5C00C4F21B33A3FB02134FEA9343BB6003E0B6
:101A6C00BB6803F1FF33BB60BB68002BF8D1FFF7F9
:101A7C0037FCF86019E0FFF733FC0246FB68D31A19
:101A8C00022B12D97B684FF0040283F829207B6863
:101A9C00DB6A43F001027B68DA627B684FF000027C
:101AAC0083F828204FF0010308E07B681B689B68D3
:101ABC0003F00103002BDED04FF00003184607F1B2
:101ACC001007BD4680BD00BF80B584B000AF786004
:101ADC004FF00003FB607B681B689B6803F00103FD
:101AEC00002B27D07B681B687A681268926822F0FA
:101AFC0001029A60FFF7F4FBF86014E0FFF7F0FBCB
:101B0C000246FB68D31A022B0DD97B684FF00402F6
:101B1C0083F829207B68DB6A43F001027B68DA6278
:101B2C004FF0010308E07B681B689B6803F001031E
:101B3C00002BE3D14FF00003184607F11007BD4608
:101B4C0080BD00BF80B584B000AF78607B685B6AF5
:101B5C00FB60FB6893F82930DBB2042B1AD0FB68CE
:101B6C0093F82930DBB2352B10D0FB6893F8293071
:101B7C00DBB2252B05D1FB684FF0350283F8292009
:101B8C0004E0FB684FF0150283F82920F86807F091
:101B9C00F3FF04E0FB685B6A1B6B7868984707F1FE
:101BAC001007BD4680BD00BF80B584B000AF786023
:101BBC007B685B6AFB60F868FFF75AFD07F110075A
:101BCC00BD4680BD80B584B000AF78607B685B6A31
:101BDC00FB60FB684FF0040283F82920FB68DB6A8A
:101BEC0043F00402FB68DA62F868FFF74BFD07F17B
:101BFC001007BD4680BD00BF80B485B000AF7860D3
:101C0C007B6803F00703FB604FF46D43CEF20003D7
:101C1C00DB68BB60BA684FF6FF031340BB60FB6820
:101C2C004FEA0322BB68134343F0BF6343F4003312
:101C3C00BB604FF46D43CEF20003BA68DA6007F173
:101C4C001407BD4680BC704780B400AF4FF46D43A1
:101C5C00CEF20003DB6803F4E0634FEA132318466B
:101C6C00BD4680BC704700BF80B483B000AF034654
:101C7C00FB714FF46143CEF2000397F907204FEA52
:101C8C005212F97901F01F014FF0010000FA01F135
:101C9C0043F8221007F10C07BD4680BC704700BF0B
:101CAC0080B483B000AF03463960FB7197F90730FD
:101CBC00002B10DA4FF46D43CEF20003FA7902F0E8
:101CCC000F02A2F104013A68D2B24FEA0212D2B268
:101CDC005B181A760DE04FF46143CEF2000397F9CE
:101CEC0007103A68D2B24FEA0212D2B25B1883F8EC
:101CFC00002307F10C07BD4680BC704780B489B047
:101D0C0000AFF860B9607A60FB6803F00703FB6111
:101D1C00FB69C3F10703042B28BF0423BB61FB69D8
:101D2C0003F10403062B03D9FB69A3F1030301E0C0
:101D3C004FF000037B61BB694FF0010202FA03F321
:101D4C0003F1FF331A46BB681A407B6902FA03F2AF
:101D5C007B694FF0010101FA03F303F1FF331946DC
:101D6C007B680B401343184607F12407BD4680BC23
:101D7C00704700BF80B582B000AF78607B6803F11C
:101D8C00FF326FF07F439A4202D94FF001031DE0FE
:101D9C004EF21003CEF200037A6802F1FF325A6061
:101DAC004FF0FF304FF00F01FFF77AFF4EF21003A8
:101DBC00CEF200034FF000029A604EF21003CEF206
:101DCC0000034FF007021A604FF00003184607F1AA
:101DDC000807BD4680BD00BF80B582B000AF7860FB
:101DEC007868FFF709FF07F10807BD4680BD00BF03
:101DFC0080B586B000AF0346B9607A60FB734FF0D4
:101E0C0000037B61FFF720FF78617869B9687A6815
:101E1C00FFF774FF034697F90F2010461946FFF79A
:101E2C003FFF07F11807BD4680BD00BF80B582B0EB
:101E3C0000AF0346FB7197F907301846FFF714FF04
:101E4C0007F10807BD4680BD80B582B000AF786051
:101E5C007868FFF78FFF0346184607F10807BD4661
:101E6C0080BD00BF80B483B000AF78607B68042B6A
:101E7C000CD14EF21003CEF200034EF21002CEF251
:101E8C000002126842F004021A600BE04EF21003DA
:101E9C00CEF200034EF21002CEF20002126822F0D3
:101EAC0004021A6007F10C07BD4680BC704700BFE6
:101EBC0080B485B000AF78604FF00003FB607B68A6
:101ECC00002B02D14FF001033EE07B6893F82130E8
:101EDC00002B04D17B684FF0000283F820207B6834
:101EEC004FF0020283F821207B681B681B68FB60A3
:101EFC00FB6823F47F5323F03003FB607B685A6844
:101F0C007B689B681A437B68DB681A437B681B6998
:101F1C001A437B685B691A437B689B691A437B682D
:101F2C00DB691343FA681343FB607B681B68FA6830
:101F3C001A607B684FF000025A637B684FF0010215
:101F4C0083F821204FF00003184607F11407BD4613
:101F5C0080BC704780B584B000AFF860B9607A601F
:101F6C003B60FB6893F82030012B02D14FF0020349
:101F7C0039E0FB684FF0010283F82020FB684FF03A
:101F8C00020283F82120FB681B68FA681268126849
:101F9C0022F001021A60F868B9687A683B6800F0B0
:101FAC00CFFAFB681B68FA681268126842F00202EA
:101FBC001A60FB681B68FA681268126842F0040227
:101FCC001A60FB681B68FA681268126842F0080213
:101FDC001A60FB681B68FA681268126842F001020A
:101FEC001A604FF00003184607F11007BD4680BD7C
:101FFC0080B584B000AF78604FF00003FB607B6865
:10200C001B687A681268126822F001021A60FFF7E6
:10201C0067F9F8601AE0FFF763F90246FB68D31A18
:10202C00B3F57A7F12D97B685B6B43F020027B6837
:10203C005A637B684FF0030283F821207B684FF0D2
:10204C00000283F820204FF0030312E07B681B682A
:10205C001B6803F00103002BDDD17B684FF00102FC
:10206C0083F821207B684FF0000283F820204FF08A
:10207C000003184607F11007BD4680BD80B582B03D
:10208C0000AF78604FF00003C4F202031A687B685B
:10209C001B6819464FF00803C4F2020399423ED064
:1020AC007B681B6819464FF01C03C4F2020399426B
:1020BC0032D07B681B6819464FF03003C4F2020320
:1020CC00994226D07B681B6819464FF04403C4F232
:1020DC00020399421AD07B681B6819464FF05803CB
:1020EC00C4F2020399420ED07B681B6819464FF06C
:1020FC006C03C4F20203994202D14FF4000301E0D5
:10210C004FF0006301E04FF4002301E04FF4004373
:10211C0001E04FF4006301E04FF0800301E04FF069
:10212C0008031340002B75D07B681B681B6803F0F9
:10213C000803002B6ED07B681B687A6812681268E3
:10214C0022F008021A604FF00003C4F202037A680E
:10215C00126811464FF00802C4F2020291423ED0BE
:10216C007A68126811464FF01C02C4F202029142C6
:10217C0032D07A68126811464FF03002C4F2020273
:10218C00914226D07A68126811464FF04402C4F28C
:10219C00020291421AD07A68126811464FF0580226
:1021AC00C4F2020291420ED07A68126811464FF0C6
:1021BC006C02C4F20202914202D14FF4000201E01F
:1021CC004FF0006201E04FF4002201E04FF40042B6
:1021DC0001E04FF4006201E04FF0800201E04FF0AB
:1021EC0008025A607B685B6B43F001027B685A63A0
:1021FC007B684FF0040283F821207B684FF00002CB
:10220C0083F820207B681B6B002B03D07B681B6B37
:10221C00786898474FF00003C4F202031A687B6891
:10222C001B6819464FF00803C4F2020399423ED0D2
:10223C007B681B6819464FF01C03C4F202039942D9
:10224C0032D07B681B6819464FF03003C4F202038E
:10225C00994226D07B681B6819464FF04403C4F2A0
:10226C00020399421AD07B681B6819464FF0580339
:10227C00C4F2020399420ED07B681B6819464FF0DA
:10228C006C03C4F20203994202D14FF4800301E0C3
:10229C004FF0806301E04FF4802301E04FF4804362
:1022AC0001E04FF4806301E04FF0400301E04FF098
:1022BC0004031340002B71D07B681B681B6803F070
:1022CC000403002B6AD07B681B681B6803F0200397
:1022DC00002B07D17B681B687A681268126822F0A1
:1022EC0004021A604FF00003C4F202037A68126809
:1022FC0011464FF00802C4F2020291423ED07A68B5
:10230C00126811464FF01C02C4F20202914232D004
:10231C007A68126811464FF03002C4F20202914200
:10232C0026D07A68126811464FF04402C4F20202B9
:10233C0091421AD07A68126811464FF05802C4F2D2
:10234C00020291420ED07A68126811464FF06C026C
:10235C00C4F20202914202D14FF4800201E04FF02C
:10236C00806201E04FF4802201E04FF4804201E0F2
:10237C004FF4806201E04FF0400201E04FF00402A4
:10238C005A607B684FF0110283F821207B68DB6A6E
:10239C00002B03D07B68DB6A786898474FF000030A
:1023AC00C4F202031A687B681B6819464FF00803D5
:1023BC00C4F2020399423ED07B681B6819464FF069
:1023CC001C03C4F20203994232D07B681B68194685
:1023DC004FF03003C4F20203994226D07B681B688D
:1023EC0019464FF04403C4F2020399421AD07B6899
:1023FC001B6819464FF05803C4F2020399420ED0E1
:10240C007B681B6819464FF06C03C4F202039942B7
:10241C0002D14FF4001301E04FF0007301E04FF4D0
:10242C00003301E04FF4005301E04FF4007301E07E
:10243C004FF0200301E04FF002031340002B7AD041
:10244C007B681B681B6803F00203002B73D07B684E
:10245C001B681B6803F02003002B07D17B681B68EB
:10246C007A681268126822F002021A604FF00003B8
:10247C00C4F202037A68126811464FF00802C4F2E3
:10248C00020291423ED07A68126811464FF01C024B
:10249C00C4F20202914232D07A68126811464FF0AF
:1024AC003002C4F20202914226D07A6812681146B8
:1024BC004FF04402C4F2020291421AD07A681268B8
:1024CC0011464FF05802C4F2020291420ED07A68C3
:1024DC00126811464FF06C02C4F20202914202D112
:1024EC004FF4001201E04FF0007201E04FF40032A3
:1024FC0001E04FF4005201E04FF4007201E04FF0A4
:10250C00200201E04FF002025A607B685A6B7B6834
:10251C005A637B684FF0010283F821207B684FF0EF
:10252C00000283F820207B689B6A002B03D07B6819
:10253C009B6A7868984707F10807BD4680BD00BFC5
:10254C0080B485B000AFF860B9607A603B60FB681E
:10255C001B683A685A60FB685B68102B08D1FB68F3
:10256C001B687A689A60FB681B68BA68DA6007E0D7
:10257C00FB681B68BA689A60FB681B687A68DA604B
:10258C0007F11407BD4680BC704700BF80B48BB008
:10259C0000AF786039604FF00003FB614FF000032F
:1025AC00BB614FF000037B614FF000033B624FF0C7
:1025BC0000033B614FF000037B62A9E17B6A4FF0A3
:1025CC00010202FA03F3FB613B681A68FB691340D2
:1025DC00BB61BA69FB699A4240F096813B685B68C3
:1025EC00122B4BD0122B0DD8022B41D0022B04D81E
:1025FC00002B49D0012B31D064E0032B5ED0112B82
:10260C0030D05FE04FF00002C1F2210293423BD088
:10261C004FF00002C1F2210293420CD84FF000029D
:10262C00C1F2110293422FD04FF00002C1F21202FC
:10263C00934229D046E04FF00002C1F2310293429E
:10264C0022D04FF00002C1F2320293421CD04FF064
:10265C000002C1F22202934216D033E03B68DB68E1
:10266C003B6230E03B68DB6803F104033B622AE029
:10267C003B68DB6803F108033B6224E03B68DB68E2
:10268C0003F10C033B621EE03B689B68002B03D1FB
:10269C004FF004033B6216E03B689B68012B06D1AC
:1026AC004FF008033B627B68FA691A610BE04FF04C
:1026BC0008033B627B68FA695A6104E04FF000033F
:1026CC003B6200E000BFBB69FF2B01D87B6802E0D6
:1026DC007B6803F10403FB60BB69FF2B03D87B6AA7
:1026EC004FEA830304E07B6AA3F108034FEA8303F8
:1026FC003B61FB681A683B694FF00F0101FA03F369
:10270C006FEA03031A403B69396A01FA03F31A436F
:10271C00FB681A603B685B6803F08053002B00F089
:10272C00F3804FF48053C4F202034FF48052C4F28E
:10273C000202926942F001029A614FF48053C4F292
:10274C0002039B6903F00103BB60BB684FF00003FD
:10275C00C4F201037A6A4FEA920202F1020253F8C0
:10276C0022307B617B6A03F003034FEA83034FF053
:10277C000F0202FA03F36FEA03037A6913407B61D9
:10278C007A684FF40063C4F201039A4220D07A684D
:10279C004FF44063C4F201039A4216D07A684FF4A6
:1027AC008053C4F201039A420CD07A684FF4A053C0
:1027BC00C4F201039A4202D14FF0030301E04FF03F
:1027CC00040301E04FF0020301E04FF0010301E0CC
:1027DC004FF000037A6A02F003024FEA820203FA16
:1027EC0002F37A6913437B614FF00003C4F20103D7
:1027FC007A6A4FEA920202F10202796943F82210D6
:10280C003B685B6803F48033002B0CD04FF480637F
:10281C00C4F201034FF48062C4F201021168BA6978
:10282C000A431A600DE04FF48063C4F201034FF4C5
:10283C008062C4F201021168BA696FEA02020A40AE
:10284C001A603B685B6803F40033002B0CD04FF428
:10285C008063C4F201034FF48062C4F20102516838
:10286C00BA690A435A600DE04FF48063C4F2010365
:10287C004FF48062C4F201025168BA696FEA020235
:10288C000A405A603B685B6803F48013002B0CD041
:10289C004FF48063C4F201034FF48062C4F201026E
:1028AC009168BA690A439A600DE04FF48063C4F2F0
:1028BC0001034FF48062C4F201029168BA696FEAB5
:1028CC0002020A409A603B685B6803F40013002B19
:1028DC000CD04FF48063C4F201034FF48062C4F255
:1028EC000102D168BA690A43DA600DE04FF48063E3
:1028FC00C4F201034FF48062C4F20102D168BA69D8
:10290C006FEA02020A40DA607B6A03F101037B6220
:10291C007B6A0F2B7FF652AE07F12C07BD4680BCAD
:10292C00704700BF80B489B000AF786039604FF059
:10293C000003FB614FF00003BB614FF000037B61B0
:10294C004FF000033B61E7E0FB694FF0010202FA34
:10295C0003F23B681340BB61BB69002B00F0D880CD
:10296C00BB69FF2B01D87B6802E07B6803F1040391
:10297C00FB60BB69FF2B03D8FB694FEA830304E0C0
:10298C00FB69A3F108034FEA83033B61FB681A68F8
:10299C003B694FF00F0101FA03F36FEA03031A408E
:1029AC003B694FF0040101FA03F31A43FB681A6008
:1029BC007B68DA68BB696FEA03031A407B68DA60EC
:1029CC004FF00003C4F20103FA694FEA920202F1DC
:1029DC00020253F822307B61FB6903F003034FEAD8
:1029EC0083034FF00F0202FA03F37A6913407B6101
:1029FC007A684FF40063C4F201039A4220D07A68DB
:102A0C004FF44063C4F201039A4216D07A684FF433
:102A1C008053C4F201039A420CD07A684FF4A0534D
:102A2C00C4F201039A4202D14FF0030301E04FF0CC
:102A3C00040301E04FF0020301E04FF0010301E059
:102A4C004FF00003FA6902F003024FEA820203FA24
:102A5C0002F27B699A425BD1FB6903F003034FEAF4
:102A6C0083034FF00F0202FA03F37B614FF0000374
:102A7C00C4F20103FA694FEA92004FF00002C4F26B
:102A8C000102F9694FEA910101F1020152F821109A
:102A9C007A696FEA0202114000F1020243F8221037
:102AAC004FF48063C4F201034FF48062C4F201025C
:102ABC001168BA696FEA02020A401A604FF4806327
:102ACC00C4F201034FF48062C4F201025168BA6986
:102ADC006FEA02020A405A604FF48063C4F20103A9
:102AEC004FF48062C4F201029168BA696FEA020283
:102AFC000A409A604FF48063C4F201034FF4806281
:102B0C00C4F20102D168BA696FEA02020A40DA60C3
:102B1C00FB6903F10103FB61FB693A6822FA03F3D9
:102B2C00002B7FF411AF07F12407BD4680BC704722
:102B3C0080B485B000AF78600B467B807B689A6868
:102B4C007B881340002B03D04FF00103FB7302E092
:102B5C004FF00003FB73FB7B184607F11407BD46CF
:102B6C0080BC704780B483B000AF786013460A46CF
:102B7C007A807B707B78002B03D07A887B681A6113
:102B8C0004E07B884FEA03427B681A6107F10C076B
:102B9C00BD4680BC704700BF90B585B000AF786073
:102BAC004FF00003FB604FF00003BB607B68002B11
:102BBC0002D14FF001037CE07B6893F83530DBB237
:102BCC00002B07D17B684FF0000283F83420786823
:102BDC0007F044FF7B684FF0020283F835207B68D6
:102BEC001B687A681268126822F001021A6002F0FF
:102BFC001DFDB860BA684DF68363C4F21B33A3FBAA
:102C0C0002034FEA9343FB607B681B68FA685A60C7
:102C1C007B681A687B68596848F2A063C0F20103AC
:102C2C00994203D8FB6803F101030EE0FB684FF4F3
:102C3C00967101FB03F144F6D353C1F26203A3FB7B
:102C4C0001034FEA931303F1010313627B681C68C1
:102C5C007868B96800F056FD0346E3617B681B6831
:102C6C007A68D1697A68126A0A431A607B681B68B1
:102C7C007A6811697A68D2680A439A607B681B6823
:102C8C007A6851697A6892690A43DA607B681B68D2
:102C9C007A681268126842F001021A607B684FF081
:102CAC0000029A637B684FF0010283F835204FF0E5
:102CBC000003184607F11407BD4690BD80B582B0DD
:102CCC0000AF78607B68002B02D14FF001031FE04E
:102CDC007B684FF0020283F835207B681B687A68AA
:102CEC001268126822F001021A60786807F0EEFE92
:102CFC007B684FF000029A637B684FF0000283F808
:102D0C0035207B684FF0000283F834204FF000032D
:102D1C00184607F10807BD4680BD00BF80B586B0D8
:102D2C0002AFF86079813A81FB80FB6893F835300B
:102D3C00DBB2012B40F0B480BB69002B02D0BB8B03
:102D4C00002B02D14FF00103ACE0FB681B689B69C0
:102D5C0003F00203002B02D04FF00203A2E0FB6849
:102D6C0093F83430012B02D14FF002039AE0FB6848
:102D7C004FF0010283F83420FB684FF0320283F8E5
:102D8C003520FB684FF000029A6379893A89FB88F9
:102D9C00386A0090F86800F06BFB0346002B47D0B4
:102DAC00FB689B6B042B07D1FB684FF0000283F888
:102DBC0034204FF0010375E0FB684FF0000283F8FC
:102DCC0034204FF003036DE0F8684FF08001C0F23F
:102DDC0001014FF000023B6A00F0EEFC0346002BB1
:102DEC0002D04FF003035DE0FB681B68BA691278F0
:102DFC001A61BB6903F10103BB61BB8B03F1FF33A8
:102E0C00BB83FB681B685B6903F00403002B0FD0CA
:102E1C00BB8B002B0CD0FB681B68BA6912781A614B
:102E2C00BB6903F10103BB61BB8B03F1FF33BB83B4
:102E3C00BB8B002BC8D1F8684FF08001C0F20101A8
:102E4C004FF000023B6A00F0B7FC0346002B02D0A7
:102E5C004FF0030326E0FB681B68FA6812681268DF
:102E6C0042F400721A60F8684FF00201C0F21001CF
:102E7C004FF001023B6A00F09FFC0346002B02D08E
:102E8C004FF003030EE0FB684FF0010283F835208E
:102E9C00FB684FF0000283F834204FF0000301E090
:102EAC004FF00203184607F11007BD4680BD00BF66
:102EBC0080B58AB002AFF86079813A81FB80FB68FB
:102ECC0093F83530DBB2012B40F0A181BB6A002BAB
:102EDC0002D0BB8D002B02D14FF0010399E1FB68AE
:102EEC001B689B6903F00203002B02D04FF0020316
:102EFC008FE1FB6893F83430012B02D14FF00203C1
:102F0C0087E1FB684FF0010283F83420FB684FF037
:102F1C00420283F83520FB684FF000029A637989EE
:102F2C003A89FB88386B0090F86800F021FB034667
:102F3C00002B13D0FB689B6B042B07D1FB684FF065
:102F4C00000283F834204FF0010362E1FB684FF07C
:102F5C00000283F834204FF003035AE1BB8D012BA0
:102F6C0019D1FB681B68FA681268126822F4806237
:102F7C001A60FB681B685B69FB61FB681B689B69DB
:102F8C00FB61FB69FB681B68FA681268126842F403
:102F9C0000721A6012E1BB8D022B19D1FB681B6801
:102FAC00FA681268126822F480621A60FB681B6867
:102FBC00FA681268126842F400621A60FB681B68B7
:102FCC005B69BB61FB681B689B69BB61BB69F5E016
:102FDC00FB681B685B697B61FB681B689B697B6199
:102FEC007B69EBE0BB8D032B00F2B580BB8D012B15
:102FFC001ED1F8684FF04001C0F201014FF0000201
:10300C003B6B00F0D9FB0346002B02D04FF00303BF
:10301C00FFE0FB681B681B69DAB2BB6A1A70BB6AFB
:10302C0003F10103BB62BB8D03F1FF33BB85C5E02C
:10303C00BB8D022B34D1F8684FF00401C0F20101B2
:10304C004FF000023B6B00F0B7FB0346002B02D0A5
:10305C004FF00303DDE0FB681B68FA681268126826
:10306C0042F400721A60FB681B681B69DAB2BB6A17
:10307C001A70BB6A03F10103BB62BB8D03F1FF3312
:10308C00BB85FB681B681B69DAB2BB6A1A70BB6A2A
:10309C0003F10103BB62BB8D03F1FF33BB858DE0F4
:1030AC00F8684FF00401C0F201014FF000023B6BD5
:1030BC0000F082FB0346002B02D04FF00303A8E084
:1030CC00FB681B68FA681268126822F480621A6046
:1030DC00FB681B681B69DAB2BB6A1A70BB6A03F126
:1030EC000103BB62BB8D03F1FF33BB85F8684FF066
:1030FC000401C0F201014FF000023B6B00F05CFBDD
:10310C000346002B02D04FF0030382E0FB681B68E0
:10311C00FA681268126842F400721A60FB681B6845
:10312C001B69DAB2BB6A1A70BB6A03F10103BB629A
:10313C00BB8D03F1FF33BB85FB681B681B69DAB2DF
:10314C00BB6A1A70BB6A03F10103BB62BB8D03F14E
:10315C00FF33BB8532E0F8684FF04001C0F201014B
:10316C004FF000023B6B00F027FB0346002B02D014
:10317C004FF003034DE0FB681B681B69DAB2BB6AB6
:10318C001A70BB6A03F10103BB62BB8D03F1FF3301
:10319C00BB85FB681B685B6903F00403002B0DD037
:1031AC00FB681B681B69DAB2BB6A1A70BB6A03F155
:1031BC000103BB62BB8D03F1FF33BB85BB8D002BC1
:1031CC007FF410AFFB681B68FA681268126822F46F
:1031DC0000621A60F8684FF00201C0F210014FF063
:1031EC0001023B6B00F0E8FA0346002B02D04FF0D3
:1031FC0003030EE0FB684FF0010283F83520FB68F7
:10320C004FF0000283F834204FF0000301E04FF040
:10321C000203184607F12007BD4680BD80B58AB071
:10322C0000AFF8607A603B600B467B814FF0000387
:10323C007B614FF000037B624FF000033B624FF069
:10324C000003FB614FF00103BB61FB6893F8353061
:10325C00DBB2012B40F00581FB681B689B6903F016
:10326C000203002B02D04FF00203FCE0FB6893F842
:10327C003430012B02D14FF00203F4E0FB684FF025
:10328C00010283F83420FB684FF0020283F83520EA
:10329C00FB684FF000029A63FB681B68FA681268BF
:1032AC00126842F480721A60F8684FF001114FF006
:1032BC0000023B6800F080FA0346002B02D04FF06E
:1032CC000303D0E0FB681B687A89D2B202F0FE02DD
:1032DC001A61FEF705F87861FB681B685B6903F0FF
:1032EC000203002B0CBF00230123DBB27B62FB68C3
:1032FC001B685B6903F48063002B0CBF0023012364
:10330C00DBB23B62FB6893F83530DBB2FB612AE041
:10331C003B68002B07D0FDF7E3FF02467B69D21A0E
:10332C003B689A4204D9FB684FF0030283F83520BE
:10333C00FB681B685B6903F00203002B0CBF0023C6
:10334C000123DBB27B62FB681B685B6903F480635F
:10335C00002B0CBF00230123DBB23B62FB6893F80C
:10336C003530DBB2FB617B6A002B05D13B6A002B4D
:10337C0002D1FB69032BCBD1FB684FF0010283F820
:10338C003520FB681B685B6903F00203002B2DD012
:10339C00FB681B68FA681268126842F400721A60C3
:1033AC00FB681B685B693B61FB681B689B693B6145
:1033BC003B69F8684FF00201C0F210014FF00102B6
:1033CC003B6800F0F9F90346002B02D04FF00303E1
:1033DC0049E0FB684FF0010283F83520FB684FF0A1
:1033EC00000283F834204FF000033CE0FB681B68BC
:1033FC00FA681268126842F400721A60FB681B6863
:10340C00FA681268526922F480625A61F8684FF0C7
:10341C000201C0F210014FF001023B6800F0CCF940
:10342C000346002B02D04FF003031CE0BA697B6803
:10343C009A422CBF00230123DBB2BA6902F10102CC
:10344C00BA61002B7FF428AFFB684FF0010283F8C0
:10345C003520FB684FF0000283F834204FF0010355
:10346C0001E04FF00203184607F12807BD4680BD66
:10347C0080B586B000AFF86079813A81FB80FB683B
:10348C001B68FA681268126842F480721A60F86855
:10349C004FF001114FF000023B6A00F08DF903462A
:1034AC00002B02D04FF003035CE0FB681B687A89A9
:1034BC00D2B202F0FE021A61F8684FF00201C0F2BB
:1034CC0001013A6A00F01EFA0346002B09D0FB6892
:1034DC009B6B042B02D14FF0010343E04FF003032D
:1034EC0040E0FB681B685B697B61FB681B689B6940
:1034FC007B617B69F8684FF08001C0F201014FF0ED
:10350C0000023B6A00F058F90346002B02D04FF042
:10351C00030327E0FB88012B05D1FB681B683A8964
:10352C00D2B21A611CE0FB681B683A894FEA12227E
:10353C0092B2D2B21A61F8684FF08001C0F2010168
:10354C004FF000023B6A00F037F90346002B02D023
:10355C004FF0030306E0FB681B683A89D2B21A618C
:10356C004FF00003184607F11807BD4680BD00BF99
:10357C0080B586B000AFF86079813A81FB80FB683A
:10358C001B68FA681268126842F480621A60FB6861
:10359C001B68FA681268126842F480721A60F86844
:1035AC004FF001114FF000023B6A00F005F90346A1
:1035BC00002B02D04FF003039FE0FB681B687A8955
:1035CC00D2B202F0FE021A61F8684FF00201C0F2AA
:1035DC0001013A6A00F096F90346002B09D0FB680A
:1035EC009B6B042B02D14FF0010386E04FF00303D9
:1035FC0083E0FB681B685B697B61FB681B689B69EC
:10360C007B617B69F8684FF08001C0F201014FF0DB
:10361C0000023B6A00F0D0F80346002B02D04FF0BA
:10362C0003036AE0FB88012B05D1FB681B683A8910
:10363C00D2B21A611CE0FB681B683A894FEA12226D
:10364C0092B2D2B21A61F8684FF08001C0F2010157
:10365C004FF000023B6A00F0AFF80346002B02D09B
:10366C004FF0030349E0FB681B683A89D2B21A6138
:10367C00F8684FF08001C0F201014FF000023B6A84
:10368C0000F09AF80346002B02D04FF0030334E00D
:10369C00FB681B68FA681268126842F480721A6040
:1036AC00F8684FF001114FF000023B6A00F084F80B
:1036BC000346002B02D04FF003031EE0FB681B688F
:1036CC007A89D2B242F00102D2B21A61F8684FF094
:1036DC000201C0F201013A6A00F014F90346002B12
:1036EC0009D0FB689B6B042B02D14FF0010304E063
:1036FC004FF0030301E04FF00003184607F11807E1
:10370C00BD4680BD80B485B000AF786039604FF0A5
:10371C000003FB607B685A6848F2A063C0F20103A7
:10372C009A4213D87B685B684FEA43033A68B2FB52
:10373C00F3F3FB60FB684FEA03534FEA1353032B7D
:10374C0002D84FF0040331E0FB682FE04FF4004344
:10375C00FB607B689B68002B0CD17B685A68134616
:10376C004FEA43039B183A68B2FBF3F3FA6813432E
:10377C00FB6010E07B685A6813464FEA83039B1882
:10378C004FEA83029B183A68B2FBF3F2FB681343CF
:10379C0043F48043FB60FB684FEA03534FEA135337
:1037AC00002B02D14FF0010300E0FB68184607F133
:1037BC001407BD4680BC704780B586B000AFF8607A
:1037CC00B9603B601346FB714FF000037B61FDF762
:1037DC0087FD7861FB79002B62D11BE03B68B3F16C
:1037EC00FF3F17D03B68002B07D0FDF779FD024651
:1037FC007B69D21A3B689A420CD9FB684FF00102E4
:10380C0083F83520FB684FF0000283F834204FF02A
:10381C00030371E0BB684FEA1343DBB2012B10D1F9
:10382C00FB681B685B696FEA0302BB6813404FEAD5
:10383C0003434FEA1343002B0CBF00230123DBB2DD
:10384C000FE0FB681B689B696FEA0302BB681340BF
:10385C004FEA03434FEA1343002B0CBF0023012311
:10386C00DBB2002BBAD145E03B68B3F1FF3F18D077
:10387C003B68002B07D0FDF733FD02467B69D21A5B
:10388C003B689A420DD9FB684FF0010283F8352052
:10389C00FB684FF0000283F834204FF003032BE059
:1038AC0000BFBB684FEA1343DBB2012B10D1FB689E
:1038BC001B685B696FEA0302BB6813404FEA034362
:1038CC004FEA1343002B14BF00230123DBB20FE09C
:1038DC00FB681B689B696FEA0302BB6813404FEAE5
:1038EC0003434FEA1343002B14BF00230123DBB225
:1038FC00002BB9D14FF00003184607F11807BD464D
:10390C0080BD00BF80B586B000AFF860B9607A604A
:10391C004FF000037B61FDF7E3FC786143E0FB684B
:10392C001B685B6903F48063002B20D0FB681B6869
:10393C00FA681268126842F400721A60FB681B681D
:10394C00FA681268526922F480625A61FB684FF07F
:10395C0004029A63FB684FF0010283F83520FB6880
:10396C004FF0000283F834204FF0010346E07B68EF
:10397C00B3F1FF3F17D07B68002B07D0FDF7B0FCED
:10398C0002467B69D21A7B689A420CD9FB684FF0CD
:10399C00010283F83520FB684FF0000283F83420D5
:1039AC004FF003032AE0BB684FEA1343DBB2012B51
:1039BC0010D1FB681B685B696FEA0302BB6813409C
:1039CC004FEA03434FEA1343002B0CBF00230123A0
:1039DC00DBB20FE0FB681B689B696FEA0302BB68F4
:1039EC0013404FEA03434FEA1343002B0CBF002351
:1039FC000123DBB2002B92D14FF00003184607F1E4
:103A0C001807BD4680BD00BF90B484B000AF4FF422
:103A1C008073FB60FB6893FAA3F4BC60BB687B60AB
:103A2C007B68B3FA83F43C603B68DBB24FEA8303F8
:103A3C0003F1844303F560234FF001021A6007F190
:103A4C001007BD4690BC704790B5ADF57D7D00AFBD
:103A5C0007F1040318604FF00003C7F8EC3307F1CB
:103A6C0004031B681B6803F00103002B00F0978212
:103A7C004FF48053C4F202035B6803F00C03042B75
:103A8C0013D04FF48053C4F202035B6803F00C03B1
:103A9C00082B40F08E804FF48053C4F202035B6815
:103AAC0003F48033002B00F084804FF40033C7F80C
:103ABC00E833D7F8E83393FAA3F4C7F8E443D7F81C
:103ACC00E433C7F8E033D7F8E033B3FA83F4C7F83C
:103ADC00DC43D7F8DC33DBB243F02003DBB24FEA34
:103AEC005313DBB2012B05D14FF48053C4F2020304
:103AFC001B6829E04FF40033C7F8D833D7F8D83314
:103B0C0093FAA3F4C7F8D443D7F8D433C7F8D03317
:103B1C00D7F8D033B3FA83F4C7F8CC43D7F8CC3307
:103B2C00DBB243F02003DBB24FEA5313DBB2022BC0
:103B3C0005D14FF48053C4F202031B6A04E04FF426
:103B4C008053C4F202035B6A4FF40032C7F8C823F7
:103B5C00D7F8C82392FAA2F4C7F8C443D7F8C42301
:103B6C00C7F8C023D7F8C023B2FA82F4C7F8BC4315
:103B7C00D7F8BC23D2B242F02002D2B202F01F021C
:103B8C0023FA02F303F00103002B00F0078207F184
:103B9C0004031B685B68012B00F0008207F104032F
:103BAC001B685B68052B00F0F9814FF0010301F0F5
:103BBC006ABC4FF48053C4F202034FF48052C4F237
:103BCC000202126822F480321A604FF48053C4F25D
:103BDC0002034FF48052C4F20202126822F48022D3
:103BEC001A60FDF77DFBC7F8EC030DE0FDF778FBE1
:103BFC000246D7F8EC33D21A41F288339A4203D9F1
:103C0C004FF0030301F03FBC4FF40033C7F8B83357
:103C1C00D7F8B83393FAA3F4C7F8B443D7F8B4334E
:103C2C00C7F8B033D7F8B033B3FA83F4C7F8AC4362
:103C3C00D7F8AC33DBB243F02003DBB24FEA5313BB
:103C4C00DBB2012B05D14FF48053C4F202031B6885
:103C5C0029E04FF40033C7F8A833D7F8A83393FA08
:103C6C00A3F4C7F8A443D7F8A433C7F8A033D7F804
:103C7C00A033B3FA83F4C7F89C43D7F89C33DBB278
:103C8C0043F02003DBB24FEA5313DBB2022B05D116
:103C9C004FF48053C4F202031B6A04E04FF48053C8
:103CAC00C4F202035B6A4FF40032C7F89823D7F8CA
:103CBC00982392FAA2F4C7F89443D7F89423C7F840
:103CCC009023D7F89023B2FA82F4C7F88C43D7F834
:103CDC008C23D2B242F02002D2B202F01F0223FA9D
:103CEC0002F303F00103002B80D14FF48053C4F294
:103CFC0002034FF48052C4F20202126822F48032A2
:103D0C001A6007F104031B685B68012B18D14FF490
:103D1C008053C4F202034FF48052C4F202021268C0
:103D2C0022F480221A604FF48053C4F202034FF441
:103D3C008052C4F20202126842F480321A601CE013
:103D4C0007F104031B685B68052B0AD141F20203DF
:103D5C00C4F2020307F1040212685268D2B21A705C
:103D6C000BE04FF48053C4F202034FF48052C4F2C0
:103D7C000202126822F480221A6007F104031B6805
:103D8C005B68002B00F08580FDF7AAFAC7F8EC03FE
:103D9C000DE0FDF7A5FA0246D7F8EC33D21A41F242
:103DAC0088339A4203D94FF0030301F06CBB4FF4F4
:103DBC000033C7F88833D7F8883393FAA3F4C7F8DD
:103DCC008443D7F88433C7F88033D7F88033B3FAF9
:103DDC0083F4C7F87C43D7F87C33DBB243F0200381
:103DEC00DBB24FEA5313DBB2012B05D14FF48053F6
:103DFC00C4F202031B6829E04FF40033C7F8783390
:103E0C00D7F8783393FAA3F4C7F87443D7F874331C
:103E1C00C7F87033D7F87033B3FA83F4C7F86C4330
:103E2C00D7F86C33DBB243F02003DBB24FEA531309
:103E3C00DBB2022B05D14FF48053C4F202031B6A90
:103E4C0004E04FF48053C4F202035B6A4FF4003277
:103E5C00C7F86823D7F8682392FAA2F4C7F864432A
:103E6C00D7F86423C7F86023D7F86023B2FA82F43A
:103E7C00C7F85C43D7F85C23D2B242F02002D2B22E
:103E8C0002F01F0223FA02F303F00103002B80D08F
:103E9C0085E0FDF725FAC7F8EC030DE0FDF720FAF5
:103EAC000246D7F8EC33D21A41F288339A4203D93E
:103EBC004FF0030301F0E7BA4FF40033C7F858335F
:103ECC00D7F8583393FAA3F4C7F85443D7F85433BC
:103EDC00C7F85033D7F85033B3FA83F4C7F84C43D0
:103EEC00D7F84C33DBB243F02003DBB24FEA531369
:103EFC00DBB2012B05D14FF48053C4F202031B68D3
:103F0C0029E04FF40033C7F84833D7F8483393FA15
:103F1C00A3F4C7F84443D7F84433C7F84033D7F871
:103F2C004033B3FA83F4C7F83C43D7F83C33DBB2E5
:103F3C0043F02003DBB24FEA5313DBB2022B05D163
:103F4C004FF48053C4F202031B6A04E04FF4805315
:103F5C00C4F202035B6A4FF40032C7F83823D7F877
:103F6C00382392FAA2F4C7F83443D7F83423C7F8AD
:103F7C003023D7F83023B2FA82F4C7F82C43D7F8A1
:103F8C002C23D2B242F02002D2B202F01F0223FA4A
:103F9C0002F303F00103002B80D100E000BF07F116
:103FAC0004031B681B6803F00203002B00F09182D2
:103FBC004FF48053C4F202035B6803F00C03002B34
:103FCC0013D04FF48053C4F202035B6803F00C036C
:103FDC00082B40F0B5804FF48053C4F202035B68A9
:103FEC0003F48033002B40F0AB804FF00203C7F892
:103FFC002833D7F8283393FAA3F4C7F82443D7F817
:10400C002433C7F82033D7F82033B3FA83F4C7F836
:10401C001C43D7F81C33DBB243F02003DBB24FEA6E
:10402C005313DBB2012B05D14FF48053C4F20203BE
:10403C001B6829E04FF00203C7F81833D7F8183380
:10404C0093FAA3F4C7F81443D7F81433C7F8103312
:10405C00D7F81033B3FA83F4C7F80C43D7F80C3302
:10406C00DBB243F02003DBB24FEA5313DBB2022B7B
:10407C0005D14FF48053C4F202031B6A04E04FF4E1
:10408C008053C4F202035B6A4FF00202C7F80823A4
:10409C00D7F8082392FAA2F4C7F80443D7F80423FC
:1040AC00C7F80023D7F80023B2FA82F4C7F8FC4211
:1040BC00D7F8FC22D2B242F02002D2B202F01F0298
:1040CC0023FA02F303F00103002B09D007F10403D8
:1040DC001B681B69012B03D04FF0010301F0D3B90E
:1040EC004FF48053C4F202034FF48052C4F2020224
:1040FC00126822F0F80107F10402126850694FF0BF
:10410C00F802C7F8F822D7F8F82292FAA2F4C7F806
:10411C00F442D7F8F422144607F53C72146007F504
:10412C003C721268B2FA82F407F53B72146007F520
:10413C003B721268D2B200FA02F20A431A60C8E16A
:10414C0007F104031B681B69002B00F0FB8007F5CB
:10415C003A734FF001021A6007F53A731B6893FA31
:10416C00A3F407F539731C6007F539731B681A46FD
:10417C0007F538731A6007F538731B68B3FA83F4C4
:10418C0007F537731C6007F537731B68DBB24FEA12
:10419C00830303F1844303F584034FF001021A6097
:1041AC00FDF79EF8C7F8EC030BE0FDF799F8024613
:1041BC00D7F8EC33D31A642B03D94FF0030301F077
:1041CC0062B907F536734FF002021A6007F53673C1
:1041DC001B6893FAA3F407F535731C6007F5357368
:1041EC001B681A4607F534731A6007F534731B689D
:1041FC00B3FA83F407F533731C6007F533731B684C
:10420C00DBB243F02003DBB24FEA5313DBB2012BDA
:10421C0005D14FF48053C4F202031B6832E007F55A
:10422C0032734FF002021A6007F532731B6893FA6F
:10423C00A3F407F531731C6007F531731B681A463C
:10424C0007F530731A6007F530731B68B3FA83F403
:10425C0007F52F731C6007F52F731B68DBB243F057
:10426C002003DBB24FEA5313DBB2022B05D14FF420
:10427C008053C4F202031B6A04E04FF48053C4F26F
:10428C0002035B6A07F52E724FF00201116007F50D
:10429C002E72126892FAA2F407F52D72146007F5CB
:1042AC002D721268114607F52C72116007F52C72ED
:1042BC001268B2FA82F407F52B72146007F52B72B0
:1042CC001268D2B242F02002D2B202F01F0223FADC
:1042DC0002F303F00103002B3FF467AF4FF480535C
:1042EC00C4F202034FF48052C4F20202126822F0AC
:1042FC00F80107F104021268506907F52A724FF0B1
:10430C00F804146007F52A72126892FAA2F407F501
:10431C002972146007F529721268144607F5287281
:10432C00146007F528721268B2FA82F407F5277246
:10433C00146007F527721268D2B200FA02F20A432F
:10434C001A60C6E007F526734FF001021A6007F5F4
:10435C0026731B6893FAA3F407F525731C6007F505
:10436C0025731B681A4607F524731A6007F5247326
:10437C001B68B3FA83F407F523731C6007F52373EA
:10438C001B68DBB24FEA830303F1844303F5840318
:10439C004FF000021A60FCF7A3FFC7F8EC030BE028
:1043AC00FCF79EFF0246D7F8EC33D31A642B03D9E3
:1043BC004FF0030301F067B807F522734FF00202C8
:1043CC001A6007F522731B6893FAA3F407F521739F
:1043DC001C6007F521731B681A4607F520731A60D9
:1043EC0007F520731B68B3FA83F407F51F731C6081
:1043FC0007F51F731B68DBB243F02003DBB24FEAF7
:10440C005313DBB2012B05D14FF48053C4F20203DA
:10441C001B6832E007F51E734FF002021A6007F5B5
:10442C001E731B6893FAA3F407F51D731C6007F544
:10443C001D731B681A4607F51C731A6007F51C736D
:10444C001B68B3FA83F407F51B731C6007F51B7329
:10445C001B68DBB243F02003DBB24FEA5313DBB231
:10446C00022B05D14FF48053C4F202031B6A04E003
:10447C004FF48053C4F202035B6A07F51A724FF0D3
:10448C000201116007F51A72126892FAA2F407F58C
:10449C001972146007F519721268114607F5187233
:1044AC00116007F518721268B2FA82F407F51772E8
:1044BC00146007F517721268D2B242F02002D2B221
:1044CC0002F01F0223FA02F303F00103002B7FF426
:1044DC0067AF07F104031B681B6803F00803002B8C
:1044EC0000F09E8107F104031B689B69002B00F010
:1044FC00CE8007F516734FF001021A6007F516739C
:10450C001B6893FAA3F407F515731C6007F5157374
:10451C001B681A4607F514731A6007F514731B68A9
:10452C00B3FA83F407F513731C6007F513731B6858
:10453C00DBB24FEA83031A464FF49063C4F2422372
:10454C00D3184FF001021A60FCF7CAFEC7F8EC034F
:10455C000BE0FCF7C5FE0246D7F8EC33D31A642BFC
:10456C0003D94FF0030300F08EBF07F512734FF021
:10457C0002021A6007F512731B6893FAA3F407F58D
:10458C0011731C6007F511731B681A4607F510733D
:10459C001A6007F510731B68B3FA83F407F50F73F1
:1045AC001C6007F50F731B68DBB243F06003DBB2D2
:1045BC004FEA5313DBB2012B05D14FF48053C4F2F5
:1045CC0002031B6832E007F50E734FF002021A600B
:1045DC0007F50E731B6893FAA3F407F50D731C60B3
:1045EC0007F50D731B681A4607F50C731A6007F56F
:1045FC000C731B68B3FA83F407F50B731C6007F597
:10460C000B731B68DBB243F06003DBB24FEA53134E
:10461C00DBB2022B05D14FF48053C4F202031B6AA8
:10462C0004E04FF48053C4F202035B6A07F50A728C
:10463C004FF00201116007F50A72126892FAA2F4A7
:10464C0007F50972146007F509721268114607F52F
:10465C000872116007F508721268B2FA82F407F555
:10466C000772146007F507721268D2B242F060024A
:10467C00D2B202F01F0223FA02F303F00103002B63
:10468C003FF467AF4FF00100FCF736FEC8E007F5CA
:10469C0006734FF001021A6007F506731B6893FA54
:1046AC00A3F407F505731C6007F505731B681A4620
:1046BC0007F504731A6007F504731B68B3FA83F4E7
:1046CC0007F503731C6007F503731B68DBB24FEA35
:1046DC0083031A464FF49063C4F24223D3184FF06D
:1046EC0000021A60FCF7FCFDC7F8EC030BE0FCF7CA
:1046FC00F7FD0246D7F8EC33D31A642B03D94FF0ED
:10470C00030300F0C0BE07F502734FF002021A60FB
:10471C0007F502731B6893FAA3F407F501731C6089
:10472C0007F501731B681A4607F500731A6007F545
:10473C0000731B68B3FA83F407F5FE731C6007F56E
:10474C00FE731B68DBB243F06003DBB24FEA53131A
:10475C00DBB2012B05D14FF48053C4F202031B686A
:10476C0032E007F5FC734FF002021A6007F5FC7398
:10477C001B6893FAA3F407F5FA731C6007F5FA7338
:10478C001B681A4607F5F8731A6007F5F8731B686F
:10479C00B3FA83F407F5F6731C6007F5F6731B6820
:1047AC00DBB243F06003DBB24FEA5313DBB2022BF4
:1047BC0005D14FF48053C4F202031B6A04E04FF49A
:1047CC008053C4F202035B6A07F5F4724FF00201E6
:1047DC00116007F5F472126892FAA2F407F5F272FE
:1047EC00146007F5F2721268114607F5F072116049
:1047FC0007F5F0721268B2FA82F407F5EE721460E3
:10480C0007F5EE721268D2B242F06002D2B202F038
:10481C001F0223FA02F303F00103002B7FF467AFAE
:10482C0007F104031B681B6803F00403002B00F062
:10483C008B834FF48053C4F202034FF48052C4F2C2
:10484C000202D26942F08052DA614FF48053C4F212
:10485C000203DB6903F0805207F108031A6007F1C9
:10486C0008031B684FF4E043C4F200034FF4E0422A
:10487C00C4F20002126842F480721A60FCF730FD38
:10488C00C7F8EC030BE0FCF72BFD0246D7F8EC3332
:10489C00D31A642B03D94FF0030300F0F4BD4FF48B
:1048AC00E043C4F200031B6803F48073002BEAD0CE
:1048BC0007F5EC734FF001021A6007F5EC731B68F7
:1048CC0093FAA3F407F5EA731C6007F5EA731B6807
:1048DC001A4607F5E8731A6007F5E8731B68B3FA14
:1048EC0083F407F5E6731C6007F5E6731B68DBB20F
:1048FC004FEA83031A464FF48063C4F24223D31861
:10490C004FF000021A6007F5E4734FF004021A60CE
:10491C0007F5E4731B6893FAA3F407F5E2731C60C4
:10492C0007F5E2731B681A4607F5E0731A6007F582
:10493C00E0731B68B3FA83F407F5DE731C6007F5AC
:10494C00DE731B68DBB24FEA83031A464FF48063B5
:10495C00C4F24223D3184FF000021A60FCF7C0FCDB
:10496C00C7F8EC030DE0FCF7BBFC0246D7F8EC33C0
:10497C00D21A41F288339A4203D94FF0030300F064
:10498C0082BD07F5DC734FF002021A6007F5DC7389
:10499C001B6893FAA3F407F5DA731C6007F5DA7356
:1049AC001B681A4607F5D8731A6007F5D8731B688D
:1049BC00B3FA83F407F5D6731C6007F5D6731B683E
:1049CC00DBB243F04003DBB24FEA5313DBB2012BF3
:1049DC0005D14FF48053C4F202031B6832E007F593
:1049EC00D4734FF002021A6007F5D4731B6893FA64
:1049FC00A3F407F5D2731C6007F5D2731B681A4633
:104A0C0007F5D0731A6007F5D0731B68B3FA83F4FB
:104A1C0007F5CE731C6007F5CE731B68DBB243F051
:104A2C004003DBB24FEA5313DBB2022B05D14FF438
:104A3C008053C4F202031B6A04E04FF48053C4F2A7
:104A4C0002035B6A07F5CC724FF00201116007F5A7
:104A5C00CC72126892FAA2F407F5CA72146007F5C8
:104A6C00CA721268114607F5C872116007F5C87250
:104A7C001268B2FA82F407F5C672146007F5C672B2
:104A8C001268D2B242F04002D2B202F01F0223FAF4
:104A9C0002F303F00103002B7FF465AF07F104036D
:104AAC001B68DB68002B56D107F5C4734FF001026D
:104ABC001A6007F5C4731B6893FAA3F407F5C27365
:104ACC001C6007F5C2731B681A4607F5C0731A60A1
:104ADC0007F5C0731B68B3FA83F407F5BE731C604B
:104AEC0007F5BE731B68DBB24FEA83031A464FF41B
:104AFC008063C4F24223D3184FF000021A6007F50A
:104B0C00BC734FF004021A6007F5BC731B6893FA70
:104B1C00A3F407F5BA731C6007F5BA731B681A4641
:104B2C0007F5B8731A6007F5B8731B68B3FA83F40A
:104B3C0007F5B6731C6007F5B6731B68DBB24FEA5A
:104B4C0083031A464FF48063C4F24223D3184FF008
:104B5C0000021A60B2E007F104031B68DB68012B4A
:104B6C0056D107F5B4734FF004021A6007F5B4730D
:104B7C001B6893FAA3F407F5B2731C6007F5B273C4
:104B8C001B681A4607F5B0731A6007F5B0731B68FB
:104B9C00B3FA83F407F5AE731C6007F5AE731B68AC
:104BAC00DBB24FEA83031A464FF48063C4F242230C
:104BBC00D3184FF000021A6007F5AC734FF00102E6
:104BCC001A6007F5AC731B6893FAA3F407F5AA7384
:104BDC001C6007F5AA731B681A4607F5A8731A60C0
:104BEC0007F5A8731B68B3FA83F407F5A6731C606A
:104BFC0007F5A6731B68DBB24FEA83031A464FF422
:104C0C008063C4F24223D3184FF001021A6055E0BE
:104C1C0007F5A4734FF001021A6007F5A4731B6823
:104C2C0093FAA3F407F5A2731C6007F5A2731B6833
:104C3C001A4607F5A0731A6007F5A0731B68B3FA40
:104C4C0083F407F59E731C6007F59E731B68DBB23B
:104C5C004FEA83031A464FF48063C4F24223D318FD
:104C6C004FF000021A6007F59C734FF004021A60B3
:104C7C0007F59C731B6893FAA3F407F59A731C60F1
:104C8C0007F59A731B681A4607F598731A6007F5AF
:104C9C0098731B68B3FA83F407F596731C6007F5D9
:104CAC0096731B68DBB24FEA83031A464FF480639A
:104CBC00C4F24223D3184FF001021A6007F1040327
:104CCC001B68DB68012B40F0A080FCF709FBC7F8E0
:104CDC00EC030CE0FCF704FB0246D7F8EC33D21AD9
:104CEC0041F288339A4202D94FF00303CBE307F524
:104CFC0094734FF002021A6007F594731B6893FAD1
:104D0C00A3F407F592731C6007F592731B681A469F
:104D1C0007F590731A6007F590731B68B3FA83F468
:104D2C0007F58E731C6007F58E731B68DBB243F0BE
:104D3C004003DBB24FEA5313DBB2012B05D14FF426
:104D4C008053C4F202031B6832E007F58C734FF0FA
:104D5C0002021A6007F58C731B6893FAA3F407F52B
:104D6C008A731C6007F58A731B681A4607F58873EB
:104D7C001A6007F588731B68B3FA83F407F586731A
:104D8C001C6007F586731B68DBB243F04003DBB293
:104D9C004FEA5313DBB2022B05D14FF48053C4F20C
:104DAC0002031B6A04E04FF48053C4F202035B6AF3
:104DBC0007F584724FF00201116007F584721268D6
:104DCC0092FAA2F407F58272146007F582721268E7
:104DDC00114607F58072116007F580721268B2FAFD
:104DEC0082F407F1FC02146007F1FC021268D2B2E3
:104DFC0042F04002D2B202F01F0223FA02F303F097
:104E0C000103002B3FF466AF9EE0FCF769FAC7F88C
:104E1C00EC030CE0FCF764FA0246D7F8EC33D21A38
:104E2C0041F288339A4202D94FF003032BE307F186
:104E3C00F8034FF002021A6007F1F8031B6893FAAB
:104E4C00A3F407F1F4031C6007F1F4031B681A4682
:104E5C0007F1F0031A6007F1F0031B68B3FA83F44F
:104E6C0007F1EC031C6007F1EC031B68DBB243F0A9
:104E7C004003DBB24FEA5313DBB2012B05D14FF4E5
:104E8C008053C4F202031B6832E007F1E8034FF0D1
:104E9C0002021A6007F1E8031B6893FAA3F407F106
:104EAC00E4031C6007F1E4031B681A4607F1E003F6
:104EBC001A6007F1E0031B68B3FA83F407F1DC0313
:104ECC001C6007F1DC031B68DBB243F04003DBB270
:104EDC004FEA5313DBB2022B05D14FF48053C4F2CB
:104EEC0002031B6A04E04FF48053C4F202035B6AB2
:104EFC0007F1D8024FF00201116007F1D8021268D5
:104F0C0092FAA2F407F1D402146007F1D4021268E9
:104F1C00114607F1D002116007F1D0021268B2FA03
:104F2C0082F407F1CC02146007F1CC021268D2B201
:104F3C0042F04002D2B202F01F0223FA02F303F055
:104F4C000103002B7FF466AF07F104031B68DB69D8
:104F5C00002B00F096824FF48053C4F202035B687E
:104F6C0003F00C03082B00F0898207F104031B6883
:104F7C00DB69022B40F0BB8107F1C8034FF0807254
:104F8C001A6007F1C8031B6893FAA3F407F1C40372
:104F9C001C6007F1C4031B681A4607F1C0031A60B2
:104FAC0007F1C0031B68B3FA83F407F1BC031C6060
:104FBC0007F1BC031B68DBB24FEA830303F18443A4
:104FCC0003F584034FF000021A60FCF789F9C7F867
:104FDC00EC030AE0FCF784F90246D7F8EC33D31A59
:104FEC00642B02D94FF003034DE207F1B8034FF0E5
:104FFC0000721A6007F1B8031B6893FAA3F407F167
:10500C00B4031C6007F1B4031B681A4607F1B00324
:10501C001A6007F1B0031B68B3FA83F407F1AC0311
:10502C001C6007F1AC031B68DBB243F02003DBB25E
:10503C004FEA5313DBB2012B05D14FF48053C4F26A
:10504C0002031B6832E007F1A8034FF000721A60EC
:10505C0007F1A8031B6893FAA3F407F1A4031C60DF
:10506C0007F1A4031B681A4607F1A0031A6007F1A5
:10507C00A0031B68B3FA83F407F19C031C6007F1CF
:10508C009C031B68DBB243F02003DBB24FEA5313E3
:10509C00DBB2022B05D14FF48053C4F202031B6A1E
:1050AC0004E04FF48053C4F202035B6A07F19802E8
:1050BC004FF00071116007F19802126892FAA2F495
:1050CC0007F19402146007F194021268114607F17B
:1050DC009002116007F190021268B2FA82F407F1A3
:1050EC008C02146007F18C021268D2B242F02002DA
:1050FC00D2B202F01F0223FA02F303F00103002BD9
:10510C007FF468AF07F104031B681B6AB3F5803F9B
:10511C0010D14FF48053C4F202034FF48052C4F206
:10512C000202526822F4003107F1040212689268FC
:10513C000A435A604FF48053C4F202034FF4805276
:10514C00C4F20202526822F4741107F104021268CC
:10515C00106A07F104021268526A02430A435A6049
:10516C0007F188034FF080721A6007F188031B68FF
:10517C0093FAA3F407F184031C6007F184031B6802
:10518C001A4607F180031A6007F180031B68B3FA13
:10519C0083F407F17C031C6007F17C031B68DBB212
:1051AC004FEA830303F1844303F584034FF00102B8
:1051BC001A60FCF795F8C7F8EC030AE0FCF790F8D6
:1051CC000246D7F8EC33D31A642B02D94FF0030301
:1051DC0059E107F178034FF000721A6007F1780378
:1051EC001B6893FAA3F407F174031C6007F17403B2
:1051FC001B681A4607F170031A6007F170031B68ED
:10520C00B3FA83F407F16C031C6007F16C031B68A1
:10521C00DBB243F02003DBB24FEA5313DBB2012BBA
:10522C0005D14FF48053C4F202031B6832E007F13E
:10523C0068034FF000721A6007F168031B6893FA59
:10524C00A3F407F164031C6007F164031B681A469E
:10525C0007F160031A6007F160031B68B3FA83F46B
:10526C0007F15C031C6007F15C031B68DBB243F0C5
:10527C002003DBB24FEA5313DBB2022B05D14FF400
:10528C008053C4F202031B6A04E04FF48053C4F24F
:10529C0002035B6A07F158024FF00071116007F1CD
:1052AC005802126892FAA2F407F15402146007F142
:1052BC0054021268114607F15002116007F15002B6
:1052CC001268B2FA82F407F14C02146007F14C0236
:1052DC001268D2B242F02002D2B202F01F0223FABC
:1052EC0002F303F00103002B3FF468AFC9E007F1B0
:1052FC0048034FF080721A6007F148031B6893FA59
:10530C00A3F407F144031C6007F144031B681A461D
:10531C0007F140031A6007F140031B68B3FA83F4EA
:10532C0007F13C031C6007F13C031B68DBB24FEA3E
:10533C00830303F1844303F584034FF000021A60E6
:10534C00FBF7CEFFC7F8EC030AE0FBF7C9FF0246F8
:10535C00D7F8EC33D31A642B02D94FF0030392E045
:10536C0007F138034FF000721A6007F138031B681D
:10537C0093FAA3F407F134031C6007F134031B68A0
:10538C001A4607F130031A6007F130031B68B3FAB1
:10539C0083F407F12C031C6007F12C031B68DBB2B0
:1053AC0043F02003DBB24FEA5313DBB2012B05D1E0
:1053BC004FF48053C4F202031B6832E007F1280358
:1053CC004FF000721A6007F128031B6893FAA3F4DC
:1053DC0007F124031C6007F124031B681A4607F12C
:1053EC0020031A6007F120031B68B3FA83F407F15A
:1053FC001C031C6007F11C031B68DBB243F0200389
:10540C00DBB24FEA5313DBB2022B05D14FF48053BE
:10541C00C4F202031B6A04E04FF48053C4F202038B
:10542C005B6A07F118024FF00071116007F1180266
:10543C00126892FAA2F407F11402146007F1140234
:10544C001268114607F11002116007F11002126880
:10545C00B2FA82F407F10C02146007F10C02126824
:10546C00D2B242F02002D2B202F01F0223FA02F3AF
:10547C0003F00103002B7FF468AF02E04FF001034F
:10548C0001E04FF00003184607F57D77BD4690BD4F
:10549C0090B492B000AF4BF2B873C0F6000307F1B2
:1054AC000404186859689A68DB680FC44BF2C87317
:1054BC00C0F600033A461B8813804FF00003FB63D1
:1054CC004FF00003BB634FF000037B644FF000030D
:1054DC007B634FF000033B644FF48053C4F2020330
:1054EC005B68FB63FB6B03F00C03042B02D0082BF3
:1054FC0006D059E04FF49053C0F27A033B6459E064
:10550C00FB6B03F470124FF470133B633B6B93FA19
:10551C00A3F4FC62FB6ABB62BB6AB3FA83F47C62E1
:10552C007B6ADBB222FA03F307F14802D31813F8B3
:10553C00443C7B63FB6B03F48033002B29D04FF48A
:10554C008053C4F202035B6803F400324FF400335F
:10555C003B623B6A93FAA3F4FC61FB69BB61BB69D8
:10556C00B3FA83F47C617B69DBB222FA03F307F1B3
:10557C004802D31813F8483CBB634FF49053C0F265
:10558C007A03BA6BB3FBF2F37A6B02FB03F37B6423
:10559C0007E07A6B4FF41063C0F23D0303FB02F398
:1055AC007B647B6C3B6405E04FF49053C0F27A0350
:1055BC003B6400BF3B6C184607F14807BD4690BCE6
:1055CC00704700BF90B585B000AFFFF761FF024692
:1055DC004FF48053C4F202035B6803F0F0014FF008
:1055EC00F003FB60FB6893FAA3F4BC60BB687B60C0
:1055FC007B68B3FA83F43C603B68DBB221FA03F1BD
:10560C004BF66003C0F600035B5C22FA03F240F237
:10561C002C43C2F200031A6040F22C43C2F2000386
:10562C001B68184607F11407BD4690BD90B585B0B0
:10563C0000AFFFF7C7FF02464FF48053C4F20203DA
:10564C005B6803F4E0614FF4E063FB60FB6893FA82
:10565C00A3F4BC60BB687B607B68B3FA83F43C60EA
:10566C003B68DBB221FA03F14BF66003C0F6000392
:10567C005B5C22FA03F3184607F11407BD4690BD94
:10568C0090B585B000AFFFF79DFF02464FF48053F5
:10569C00C4F202035B6803F460514FF46053FB6087
:1056AC00FB6893FAA3F4BC60BB687B607B68B3FABD
:1056BC0083F43C603B68DBB221FA03F14BF66003E8
:1056CC00C0F600035B5C22FA03F3184607F11407DB
:1056DC00BD4690BD90B5CDB000AF07F10403186086
:1056EC003B4619604FF00003C7F82C314FF40053C0
:1056FC00C4F202031B6803F007023B461B689A4284
:10570C0080F012824FF40053C4F202034FF40052A3
:10571C00C4F20202126822F007013A4612680A43E8
:10572C001A604FF40053C4F202031B6803F0070223
:10573C003B461B689A4203D04FF0010300F030BC8B
:10574C0007F104031B681B6803F00203002B10D045
:10575C004FF48053C4F202034FF48052C4F202029D
:10576C00526822F0F00107F10402126892680A43B1
:10577C005A6007F104031B681B6803F00103002B3C
:10578C0000F0D48307F104031B685B68012B74D110
:10579C004FF40033C7F82831D7F8283193FAA3F423
:1057AC00C7F82441D7F82431C7F82031D7F8203175
:1057BC00B3FA83F4C7F81C41D7F81C31DBB243F0C1
:1057CC002003DBB24FEA5313DBB2012B05D14FF4AC
:1057DC008053C4F202031B6829E04FF40033C7F86E
:1057EC001831D7F8183193FAA3F4C7F81441D7F845
:1057FC001431C7F81031D7F81031B3FA83F4C7F865
:10580C000C41D7F80C31DBB243F02003DBB24FEA8A
:10581C005313DBB2022B05D14FF48053C4F20203B5
:10582C001B6A04E04FF48053C4F202035B6A4FF42A
:10583C000032C7F80821D7F8082192FAA2F4C7F869
:10584C000441D7F80421C7F80021D7F80021B2FA97
:10585C0082F4C7F8FC40D7F8FC20D2B242F0200208
:10586C00D2B202F01F0223FA02F303F00103002B61
:10587C0040F0F1804FF0010392E307F104031B6841
:10588C005B68022B73D14FF00073C7F8F830D7F870
:10589C00F83093FAA3F4C7F8F440D7F8F430C7F80B
:1058AC00F030D7F8F030B3FA83F4C7F8EC40D7F8FF
:1058BC00EC30DBB243F02003DBB24FEA5313DBB224
:1058CC00012B05D14FF48053C4F202031B6829E06D
:1058DC004FF00073C7F8E830D7F8E83093FAA3F428
:1058EC00C7F8E440D7F8E430C7F8E030D7F8E03038
:1058FC00B3FA83F4C7F8DC40D7F8DC30DBB243F002
:10590C002003DBB24FEA5313DBB2022B05D14FF469
:10591C008053C4F202031B6A04E04FF48053C4F2B8
:10592C0002035B6A4FF00072C7F8D820D7F8D82072
:10593C0092FAA2F4C7F8D440D7F8D420C7F8D020F4
:10594C00D7F8D020B2FA82F4C7F8CC40D7F8CC20E4
:10595C00D2B242F02002D2B202F01F0223FA02F3BA
:10596C0003F00103002B76D14FF0010318E34FF045
:10597C000203C7F8C830D7F8C83093FAA3F4C7F8B5
:10598C00C440D7F8C430C7F8C030D7F8C030B3FA29
:10599C0083F4C7F8BC40D7F8BC30DBB243F020032B
:1059AC00DBB24FEA5313DBB2012B05D14FF480531A
:1059BC00C4F202031B6829E04FF00203C7F8B830A9
:1059CC00D7F8B83093FAA3F4C7F8B440D7F8B4308A
:1059DC00C7F8B030D7F8B030B3FA83F4C7F8AC409E
:1059EC00D7F8AC30DBB243F02003DBB24FEA5313F1
:1059FC00DBB2022B05D14FF48053C4F202031B6AB5
:105A0C0004E04FF48053C4F202035B6A4FF00202CD
:105A1C00C7F8A820D7F8A82092FAA2F4C7F8A44097
:105A2C00D7F8A420C7F8A020D7F8A020B2FA82F4A7
:105A3C00C7F89C40D7F89C20D2B242F02002D2B2D8
:105A4C0002F01F0223FA02F303F00103002B02D130
:105A5C004FF00103A4E24FF48053C4F202034FF45D
:105A6C008052C4F20202526822F0030107F10402D0
:105A7C00126852680A435A60FBF732FCC7F82C01D3
:105A8C0007F104031B685B68012B17D10CE0FBF7D3
:105A9C0027FC0246D7F82C31D21A41F288339A42AD
:105AAC0002D94FF003037BE24FF48053C4F202039C
:105ABC005B6803F00C03042BE9D137E207F1040314
:105ACC001B685B68022B24D10CE0FBF709FC024637
